:10004B00E4F5B1F5B2F5B3F5B4F5ACF5AD438E020D
:10005B00A2AF9200C2AF75C7AA75C755439720A22E
:04006B000092AF222E
:0700910053B3FB43B404224A
:10000300E4F508F582F583AF82AE83E4FCFD7B5013
:100013007AC3F9F8D312006F4003A380EA12004BAE
:10002300120091D292E4F583F582A3E5826405453B
:100033008370F7C292E4F583F582C3E5829405E504
:0800430083940050DEA380F25B
:0300000002008576
:0C008500787FE4F6D8FD758108020003C6
:10006F00EB9FF5F0EA9E42F0E99D42F0EC6480C808
:06007F0064809845F022A8
:00000001FF
