:10074600E4FFEFC39403500AC2EFD2EE30EFFD0F81
:0207560080F031
:01075800227E
:10033100A2AF9200C2AF75C7AA75C755439F01A26C
:100341000092AF75A60CE4F5A775AF04A2AF9200B9
:10035100C2AF75C7AA75C75543A401A20092AFAF3A
:10036100AE75A60DF5A775AF04A2AF9200C2AF7529
:10037100C7AA75C75543A401A20092AFADAE5305FC
:100381000FA2AF9200C2AF75C7AA75C755539FFEA2
:10039100A20092AFEF75F010A47C002DFDEC35F0BA
:1003A100FCE41201AEAB07AA06A905A8047F007EF2
:1003B100F07D7F7C4512010CA804A905AA06AB07B4
:1003C100E4FFFE7D407C4512010C8F0F8E0E8D0DDA
:0203D1008C0C92
:0103D3002207
:1004B9007F007EC27D017C001206E112033143E810
:1004C9000853E8F843E101120746C2EFD2EE30EFD4
:1004D900FDAFC3EF75F010A4ADC27C002DFDEC3566
:1004E900F0FCE41201AEAB07AA06A905A8047F0037
:1004F9007EF07D7F7C4512010CAB0FAA0EA90DA8D9
:0E0509000C1200038F0B8E0A8D098C0880FEE9
:0105170022C1
:1006E10053B1BF53B2BF53B17F53B27F75985043DB
:1006F1008920438780438E1053C4DFAB07AA06A924
:1007010005A8047F407E427D0F7C0012026DEF043C
:09071100F404F58DD28ED2992278
:1003D4008F138E128D118C1053B1BF53B2BF53B112
:1003E4007F53B27F75985043878053C4F843C42029
:1003F400AB13AA12A911A8107F407E427D0F7C0086
:1004040012026DC374FF9FFF74FF9EFEE49DFDE422
:100414009CFC780812031E8FC6AB13AA12A911A85C
:10042400107F407E427D0F7C0012026DC374FF9FDB
:10043400FF74FF9EFEE49DFDE49CFCEFE48FC54346
:05044400C408D299225A
:070759003098FDAF99C29832
:010760002276
:08076100C2998F993099FD2225
:100449008F178E168D158C1453B1FB53B2FB53B312
:10045900BF53B4BF75F85075C40853C4DFAB17AAAE
:1004690016A915A8147F407E427D0F7C0012026DEB
:10047900C374FF9FFF74FF9EFEE49DFDE49CFC781E
:100489000812031E8FC6AB17AA16A915A8147F4018
:100499007E427D0F7C0012026DC374FF9FFF74FFC3
:1004A9009EFEE49DFDE49CFCEFE48FC543C4082255
:0707690030F8FDAF9AC2F861
:010770002266
:08077100C2F98F9A30F9FD2254
:100600008F1B8E1A8D198C18538EF7438901D28C4B
:10061000E4FFFEFDFCAB1BAA1AA919A818C312031C
:100620000D6025758A7E758CFF308DFDC28D74FF3F
:10063000251BF51BE51A34FFF51AE51934FFF519EA
:0B064000E51834FFF51880C8C28C22BA
:10064B008F1F8E1E8D1D8C1C538EF7438901D28CF0
:10065B00E4FFFEFDFCAB1FAA1EA91DA81CC31203C1
:10066B000D6025758ACA758CFA308DFDC28D74FFAD
:10067B00251FF51FE51E34FFF51EE51D34FFF51D87
:0B068B00E51C34FFF51C80C8C28C2267
:100696008F248E238D228C21538EEF438910D28E88
:1006A600E4FFFEFDFCAB24AA23A922A821C3120362
:1006B6000D6025758BEA758DCB308FFDC28F74FF6B
:1006C6002524F524E52334FFF523E52234FFF5221E
:0B06D600E52134FFF52180C8C28E2210
:100518008F288E278D268C2553C9BF53C9DF43C921
:1005280010D2CAE4FFFEFDFCAB28AA27A926A825FD
:10053800C312030D602575CC3075CDF830CFFDC2E0
:10054800CF74FF2528F528E52734FFF527E526345D
:0E055800FFF526E52534FFF52580C8C2CA222E
:100566008F2C8E2B8D2A8C2975C40743C408E4FF73
:10057600FEFDFCAB2CAA2BA92AA829C312030D60E9
:100586002875C52C75C6CFE5C430E4FB53C4EF749B
:10059600FF252CF52CE52B34FFF52BE52A34FFF54A
:0D05A6002AE52934FFF52980C553C4F7224A
:1005B3008F308E2F8D2E8C2D75C40743C408E4FF16
:1005C300FEFDFCAB30AA2FA92EA82DC312030D608C
:1005D3002875C5D875C6FFE5C430E4FB53C4EF7472
:1005E300FF2530F530E52F34FFF52FE52E34FFF5E9
:0D05F3002EE52D34FFF52D80C553C4F722F1
:0300000002071ADA
:10071A0075C7AA75C75575FD5A75C7AA75C75575A0
:10072A00FDA5787FE4F6D8FD9000007FFF7E03E404
:0C073A00F0A3DFFCDEFA7581300204B988
:10000300EC4D6011E8497017ED33EC3304600DE4F7
:10001300FCFFFEFD22E933E8330470F802021C12F0
:1000230001E758046009E4CC2481500628500902F2
:100033000226284003020223C0E0EB4A7044B98041
:1000430006D0E0FB020212EF4E701CBD8008EBFFEE
:10005300EAFEE9FD80EBE98DF0A4FEE5F00200EC99
:10006300E9CDF9EAFEEBFFEF89F0A4FCE5F0CE89D8
:10007300F0A42EFFE435F0CD89F0A42DFEE435F095
:100083008067EF4E7005BD80D780C3EF8BF0A4ACC3
:10009300F0EE8BF0A42CFCE435F0F8EF8AF0A42CFE
:1000A300E5F038FCE433CB8DF0A42CFCE5F03BF811
:1000B300EE8AF0A42CFCE5F038F8E433CF89F0A401
:1000C3002CFCE5F038CF3400CE89F0A42FFFE5F007
:1000D3003EFEE433C98DF0A42EFEE5F039CD8AF05F
:1000E300A42FFFE5F03EFEE43DFD33D0E0FB5007D7
:1000F3000BBB000F020226EC2CFCEF33FFEE33FEAA
:06010300ED33FD0201FED8
:10010900020226EC5D046005E85904700302021C32
:100119001201E7580460F6EC4860F2EC7004FDFE49
:10012900FF22C860DB2481C85009C39860025006C9
:100139000202239850CAF582E9294B4A7005AB821D
:1001490002021275F0007C1A7880C3EF9BEE9AEDDB
:1001590099400DC3EF9BFFEE9AFEED99FDE842F041
:10016900DC23ACF0D0E0FFD0E0FED0E0FDAB822094
:10017900E7101BEB60BAEC2CFCEF33FFEE33FEED1E
:1001890033FD0201FEE803F830E705C0F075F00021
:10019900EF2FFFEE33FEED33FD40B830E7C280AA02
:1001A90075F020800E75F010800575F0087D007ED1
:1001B900007F003392D530D5031202FFEC33401093
:1001C900EF33FFEE33FEED33FDEC33FCD5F0ED22DA
:0E01D900E5F0247EA2D513CC92E7CDCEFF2216
:1001E700E9D2E7C933E833F892D5EDD2E7CD33EC5E
:0701F70033FC5002B2D522D7
:1001FE00EC30E7100FBF000C0EBE00080DBD000462
:10020E000BEB6014A2D5EB13FCED92E7FD2274FF0D
:10021E00FCFDFEFF22E480F8A2D574FF13FC7D8066
:03022E00E480EF7A
:1002310075F008758200EF2FFFEE33FECD33CDCC84
:1002410033CCC58233C5829BED9AEC99E582984007
:100251000CF582EE9BFEED9AFDEC99FC0FD5F0D6E4
:10026100E4CEFBE4CDFAE4CCF9A88222B800C1B90E
:100271000059BA002DEC8BF084CFCECDFCE5F0CB4C
:10028100F97818EF2FFFEE33FEED33FDEC33FCEB85
:1002910033FB10D703994004EB99FB0FD8E5E4F940
:1002A100FA227818EF2FFFEE33FEED33FDEC33FC2D
:1002B100C933C910D7059BE99A4007EC9BFCE99A21
:1002C100F90FD8E0E4C9FAE4CCFB2275F010EF2F66
:1002D100FFEE33FEED33FDCC33CCC833C810D70766
:1002E1009BEC9AE899400AED9BFDEC9AFCE899F8A1
:0E02F1000FD5F0DAE4CDFBE4CCFAE4C8F92234
:0E02FF00C3E49FFFE49EFEE49DFDE49CFC2210
:10030D00EB9FF5F0EA9E42F0E99D42F0E89C45F046
:01031D0022BD
:10031E00E8600FECC313FCED13FDEE13FEEF13FFBD
:03032E00D8F122E1
:00000001FF
