:03002D000143008C
:030033000201FACD
:1001FA00C0E0C083C082C0D075D000C000C007AFC5
:10020A00BDEF120128023100026D60023568023921
:10021A0080024F88026DA0025DA8025FB8026DC01D
:10022A00026DC80000026FD2C4803AC28280FE7496
:10023A00212543F8A6BC0543E543B42204C2C28083
:10024A0024D2C2802074212543F8A6BC754300D26B
:10025A00C28012800074212543F8E6F5BC0543D21A
:10026A00C28002D2C2C2C320C4FDD007D000D0D0FF
:07027A00D082D083D0E032F6
:1005170053B3F753B4F753B3EF53B4EFD294D29323
:10052700A2AF920075C7AA75C75575910143B40864
:1005370075C7AA75C755E4F591A20092AF439B0111
:0A054700D2AF75C1A4D2C6D2C22201
:10000300E4F5B1F5B1F5B3F5B4F5ACF5AD120517FB
:0200130080FE6D
:1005510053B1BF53B2BF53B17F53B27F759850436C
:100561008920438780438E1053C4DFAB07AA06A9B5
:1005710005A8047F407E427D0F7C00120072EF04CB
:09058100F404F58DD28ED299220A
:100281008F0B8E0A8D098C0853B1BF53B2BF53B186
:100291007F53B27F75985043878053C4F843C4207D
:1002A100AB0BAA0AA909A8087F407E427D0F7C00FA
:1002B100120072C374FF9FFF74FF9EFEE49DFDE474
:1002C1009CFC78081201158FC6AB0BAA0AA909A8D4
:1002D100087F407E427D0F7C00120072C374FF9F35
:0902E100FF8FC543C408D2992225
:070015003098FDAF99C2987D
:01001C0022C1
:08001D00C2998F993099FD2270
:1002EA008F0F8E0E8D0D8C0C53B1FB53B2FB53B393
:1002FA00BF53B4BF75F85075C40853C4DFAB0FAA17
:10030A000EA90DA80C7F407E427D0F7C0012007260
:10031A00C374FF9FFF74FF9EFEE49DFDE49CFC787E
:10032A00081201158FC6AB0FAA0EA90DA80C7F40A3
:10033A007E427D0F7C00120072C374FF9FFF8FC53F
:04034A0043C408227E
:0700250030F8FDAF9AC2F8AC
:01002C0022B1
:08058A00C2F98F9A30F9FD223D
:100436008F138E128D118C10538EF7438901D28C37
:10044600E4FFFEFDFCAB13AA12A911A810C312010A
:10045600046025758A7E758CFF308DFDC28DE5138F
:1004660024FFF513E51234FFF512E51134FFF511FB
:0B047600E51034FFF51080C8C28C2296
:100481008F178E168D158C14538EF7438901D28CDC
:10049100E4FFFEFDFCAB17AA16A915A814C31201AF
:1004A100046025758ACA758CFA308DFDC28DE517F9
:1004B10024FFF517E51634FFF516E51534FFF5159C
:0B04C100E51434FFF51480C8C28C2243
:1004CC008F1B8E1A8D198C18538EEF438910D28E78
:1004DC00E4FFFEFDFCAB1BAA1AA919A818C3120154
:1004EC00046025758BEA758DCB308FFDC28FE51BB3
:1004FC0024FFF51BE51A34FFF51AE51934FFF5193D
:0B050C00E51834FFF51880C8C28E22ED
:10034E008F1F8E1E8D1D8C1C53C9BF53C9DF43C911
:10035E0010D2CAE4FFFEFDFCAB1FAA1EA91DA81CED
:10036E00C3120104602575CC3075CDF830CFFDC2B7
:10037E00CFE51F24FFF51FE51E34FFF51EE51D34E6
:0E038E00FFF51DE51C34FFF51C80C8C2CA2215
:10039C008F478E468D458C4475C40743C408E4FFD3
:1003AC00FEFDFCAB47AA46A945A844C31201046054
:1003BC002875C52C75C6CFE5C430E4FB53C4EFE5F6
:1003CC004724FFF547E54634FFF546E54534FFF590
:0D03DC0045E54434FFF54480C553C4F722C5
:1003E9008F4B8E4A8D498C4875C40743C408E4FF76
:1003F900FEFDFCAB4BAA4AA949A848C312010460F7
:100409002875C5D875C6FFE5C430E4FB53C4EFE5CC
:100419004B24FFF54BE54A34FFF54AE54934FFF52E
:0D04290049E54834FFF54880C553C4F7226B
:0300000002014EAC
:10014E0075C7AA75C75575FD5A75C7AA75C7557572
:10015E00FDA5787FE4F6D8FD9000007FFF7E03E4D6
:0C016E00F0A3DFFCDEFA75814B0201B546
:10017A00020003E493A3F8E493A34003F68001F298
:10018A0008DFF48029E493A3F85407240CC8C33386
:10019A00C4540F4420C8834004F456800146F6DF55
:1001AA00E4800B010204081020408090002DE47EB8
:1001BA00019360BCA3FF543F30E509541FFEE4934A
:1001CA00A360010ECF54C025E060A840B8E493A311
:1001DA00FAE493A3F8E493A3C8C582C8CAC583CA3C
:1001EA00F0A3C8C582C8CAC583CADFE9DEE780BEF4
:0100300000CF
:1000360075F008758200EF2FFFEE33FECD33CDCC81
:1000460033CCC58233C5829BED9AEC99E582984004
:100056000CF582EE9BFEED9AFDEC99FC0FD5F0D6E1
:10006600E4CEFBE4CDFAE4CCF9A88222B800C1B90B
:100076000059BA002DEC8BF084CFCECDFCE5F0CB49
:10008600F97818EF2FFFEE33FEED33FDEC33FCEB82
:1000960033FB10D703994004EB99FB0FD8E5E4F93D
:1000A600FA227818EF2FFFEE33FEED33FDEC33FC2A
:1000B600C933C910D7059BE99A4007EC9BFCE99A1E
:1000C600F90FD8E0E4C9FAE4CCFB2275F010EF2F63
:1000D600FFEE33FEED33FDCC33CCC833C810D70763
:1000E6009BEC9AE899400AED9BFDEC9AFCE899F89E
:0E00F6000FD5F0DAE4CDFBE4CCFAE4C8F92231
:10010400EB9FF5F0EA9E42F0E99D42F0E89C45F051
:0101140022C8
:10011500E8600FECC313FCED13FDEE13FEEF13FFC8
:03012500D8F122EC
:10012800D083D082F8E4937012740193700DA3A366
:1001380093F8740193F5828883E47374029368607A
:06014800EFA3A3A380DF7A
:00000001FF
